:020000040800F2
:2000000008EE0420556C0008316C0008336C0008356C0008376C0008396C000800000000B0
:20002000000000000000000000000000F96C00083B6C000800000000FD6C00083D6C000882
:20004000016D0008056D0008096D00080D6D0008116D0008156D0008196D00081D6D000880
:20006000216D0008256D0008296D00082D6D0008316D0008356D0008396D00083D6D000860
:20008000416D0008456D0008496D00084D6D0008516D0008556D0008596D00085D6D000840
:2000A000616D0008656D0008696D00086D6D0008716D0008756D0008796D00087D6D000820
:2000C000816D0008856D0008896D00088D6D0008916D0008956D0008996D00089D6D000800
:2000E000A16D0008A56D0008A96D0008AD6D0008B16D0008B56D0008B96D0008BD6D0008E0
:20010000C16D0008C56D0008C96D0008CD6D0008D16D0008D56D0008D96D0008DD6D0008BF
:20012000E16D0008E56D0008E96D0008ED6D0008F16D0008F56D0008F96D0008FD6D00089F
:20014000016E0008056E0008096E00080D6E0008116E0008156E0008196E00081D6E000877
:20016000216E0008256E0008296E00082D6E0008316E0008356E0008396E0008000000000A
:200180003D6E0008416E0008456E0008496E00084D6E0008516E0008556E0008596E000857
:2001A0005D6E0008616E0008656E0008696E00086D6E0008716E0008756E0008796E000837
:2001C0007D6E0008F97F00082DE9F8431646074688463068D8F800400025401C7A4204E01B
:2001E00058F8201011400D43401C8442F8D23068A04238BF04465FEA04090AE056F8292060
:2002000058F82910384600F054F846F82900B9F10109F3D1641C791E05E056F82400084006
:2002200046F82400641C3068A042F6D2002D14BF03200020BDE8F2832DE9F84300240025A3
:20024000002918BF002A03D00B681668B34201D201201DE0012781460E46904613E058F86E
:20026000270056F827200021201869410023841A61EB03052146484600F01BF846F827004D
:200280002C46ED177F1CD8F80000B842E7D20020BDE8F283024600200AB9012070475160DC
:2002A000022102E042F82100491C13688B42F9D270474042514008405040704780B50B4687
:2002C00000920246596800F031F902BD2DE9FC411F4605460023904601930E462A6801A98A
:2002E000404600F046F904000FD101980121FFF7D1FF0097334601992A46284600F016F95D
:20030000044601A9404600F05EF92046BDE8F681484041420843C00F704710B50A46016840
:20032000002303E050F821402343491E0229F9D240684240002142EA0300FFF7E9FFBDE84E
:20034000104000F080BA2DE9F04784468E46DCF80010DEF8005001260027A942BA460FD313
:20036000084664460121854224D254F820200023524263EB430303F001031F43401EF2E73F
:2003800028460D4674464FF0FF31EEE75CF820205EF8204000250023B4EB020865EB030907
:2003A0006240521E06EA090563F1000345EA0A0A1E40401E0028E9D1384606EB4A02BDE895
:2003C000F047521EFFF775BFF8B515460C46296822680E68B2421F4601D20320F2BDEA6811
:2003E00000920B1DA968D7F808C00A1D3146001DE047E8680090231D2968A868FC680A1D6D
:200400003146001DA0470020F2BD2DE9FF4E82460020CDE9020017469C460E463A68DCF886
:2004200000300021934221BFDAF800B093453568954201D2032076E0AB4503D3CDF804A06D
:20044000009503E0CDF800B00196AB465B4538BF9B464FF0010E002515E05AF82E2056F859
:200460002E40801841EB0509021949EB050357F82E000021101A4CF82E0063EB010108460D
:20048000C9170EF1010E3A687245E6D2009C74451CD35AF82E2056F82E4000230025141948
:2004A0005D4100194CF82E0069410846C9170EF1010EEBE7019C54F82E20002380184CF825
:2004C0002E0059410846C9170EF1010EF345F1D28646DDE9020166464FF0010C002510E07B
:2004E00057F82C2056F82C4002EA0E020023A2186B41801846F82C005941084600210CF11A
:20050000010C3A686245EBD2346864450AD356F82C20801846F82C006941084600210CF1F4
:20052000010CF1E7002004B0BDE8F08EFEB51D4614462A6823681668B34201D20320FEBD2E
:20054000EB68089F0193121D0092091DAA68D7F800C0131D3246001DE047E8680090231D79
:200560002968A8687C680A1D3146001DA0470020FEBD38B51546AA000C46121D00F066F9B7
:2005800008B921680D6032BDF0B5044615466668002772186A6047EBE1731A46DB17022622
:2005A00008E054F82600121845F826207B411A46DB17761C2068B042F3D21046524222EA5F
:2005C0000000C00FF0BD10B50C4623681A689200121D00F05AF90023236010BD2DE9F44FAB
:2005E00084B08E460021CDE90211049A1C6815688346AC4238BF03206CD3DEF80050DBF861
:200600000090A94506D3CDF80090CDF804B0A9468C4604E0CDF804E000954FF0FF3C009DBB
:20062000AC4238BF009498464FF0010A0022002300250FE05BF82A005EF82A40161843EB27
:200640000107321B48F82A2067EB05031A46DB170AF1010AD145EDD20098504511D3019E84
:2006600056F82A0020EA0C0412196B4100EA0C00121A48F82A208B411A46DB170AF1010A41
:20068000EAE7DDE90201DDF810C0164601270EE05CF8272058F8274032400023A2186B415C
:2006A000801848F827005941084600217F1CDCF80020BA42ECD2D8F80040BC4209D358F8AF
:2006C0002720801848F827006941084600217F1CF1E7002005B0BDE8F08F404251400840F4
:2006E000504070472DE9F047904602680B689A4203D1D8F80040944201D201204FE044684E
:200700004A68640000234FF00009A21A69EB030315461A46DB17022784468E4618E00CEBDF
:20072000870454F8040C5CF827105EF82740C00F40EA4100161808EB870043EB090A40F82F
:20074000045C321B6AEB090315461A46DB177F1CDCF80000B842E2D246466446C84654F831
:20076000201046F8205002EBD17300254FF0010C11E05EF82C0056F82C201840002110184B
:2007800049EB010118EB00004D4146F82C00A846ED170CF1010C20686045EAD20020BDE87E
:2007A000F0872DE9F045154642688E4602F001060168DEF800307642994202D12C688C426E
:2007C00001D201203DE0DEF80470002337400024D219634104466A6000214FF00208184695
:2007E00018E007465EF8280054F828200023304010185941381845F82800594155F8283059
:200800005CF8042CDB07084643EA520300214CF8043CD0462268424505EB880C08F1010A4E
:20082000DFD25CF8043CC00740EA53004CF8040C03E045F82A100AF1010A28685045F8D28C
:200840000020BDE8F08580F00100704720B511B11AB900200860012020BD83684568D21CC0
:20086000920803EB8202954203D200200860022020BD05682B440B6082601146C2689142BC
:2008800038BF1146C160002020BD10B50446002000291CBF0B68002B03D012B1A3689342A5
:2008A00001D2012010BDD21C92080860A3EB8202A26010BD80B50B48016851F4007101609E
:2008C000016851F480610160016851F480710160032002F03AFF002006F068FD06F08CFDE0
:2008E000002002BD003C0240F8B4002200220022002337E00A2704E0DFF800229042F9D1A5
:200900000927FFB213F00302D2B2920097403D431A00920846F82250DFF8E4512A68A2439A
:200920004E68F60200D522432A60DFF8D8512A68A2434E68B60200D522432A60DFF8C851AC
:200940002A68A2434E68B60300D522432A60DFF8BC512A68A2434E68F60301D51443220094
:200960002A605B1C102B80F0B280012616FA03F20C6814409442F4D10A7912F00302012A55
:2009800004D00A7912F00302022A16D1856803271A00D2B252009740BD43CF681A00D2B233
:2009A000520097403D43856042689E40B2434D68C5F300159D402A4342600A7912F0030234
:2009C000032A0DD0C56803261A00D2B252009640B5438E681A00D2B2520096403543C560A0
:2009E0000A7912F00302022A17D11A00D20800EB8202156A0F2613F00702D2B2920096404A
:200A0000B5430E6913F00702D2B29200964035431A00D20800EB82021562056803261A006D
:200A2000D2B252009640B5430E7916F003061A00D2B252009640354305604A6812F4403FA2
:200A40008FD000220092324A156855F480451560126812F480420092009A2E4E1A00920869
:200A600056F822500F2713F00302D2B292009740BD43294A904201D1002742E7274A9042E1
:200A800001D101273DE7264A904201D1022738E7244A904201D1032733E7234A904201D175
:200AA00004272EE7214A904201D1052729E7204A904201D1062724E71E4A904201D107272B
:200AC0001FE71D4A90427FF417AF082719E7F1BC7047D2B2002A02D089B2816102E089B251
:200AE00009048161704742690B009BB2134089B2914351EA0341816170470000002402406D
:200B0000083C01400C3C0140043C0140003C01404438024008380140000002400004024002
:200B200000080240000C0240001002400014024000180240001C02400020024080B50E48D0
:200B40000E49016000F032F8002801D001F0E5FC01BD81B00068094988420BD100200090F9
:200B60000748016851F480510160006810F480500090009801B07047F8E504200030024007
:200B80003038024038B5040000F022F8050014F1010F02D004480078241800F019F8401B68
:200BA000A042FAD331BD00BF14E2042010B50400002C01D101200AE06079002804D10020F7
:200BC00020712000FFF7C5FF01206071002010BD01480068704700BF00E6042010B50020B5
:200BE0000020002000201948006810F00C00002804D0042804D0082804D025E0144824E05B
:200C0000144822E0144C226812F03F022068400209D52068C0F388100E49A1FB00010023B7
:200C200003F0ECFB08E02068C0F388100849A1FB0001002303F0E2FB2168C1F30141491C5A
:200C40004900B0FBF1F000E0014810BD083802400024F40080F0FA0204380240C9B2027850
:200C60008A421AB11CBF10F8012FF9E718BF0020704700002DE9F84381460E0014001D00E5
:200C80000120DFF8EC71387E012801D102202FE0012038764CF25038404600F042F80100D7
:200CA000C9B2002921D14946300022002B00002904D11100C9B200F08FF80EE0012904D1A4
:200CC000110089B200F079F807E0022903D1110000F064F801E000F04CF8404600F021F880
:200CE00064490A68520852000A6000213976C0B2BDE8F28300205F490A68002A08D55F4A79
:200D00005F4B13605F4B13600968002900D50120C0B270475748016851F0004101600020D5
:200D2000704738B50400002000205149C861FFF74FFF050050480168C9030BD514F1010FFD
:200D4000F8D0002C04D0FFF743FF401B8442F1D203200DE00168C90701D5012101600068A5
:200D600010F4F97F03D000F044F8012000E0002032BD10B43F490C6834F440740C600C686C
:200D800054F440740C600C6854F001040C600260BFF36F8F001D036010BC7047354A1368B3
:200DA00033F440731360136853F400731360136853F001031360016070472E4A136833F4D7
:200DC00040731360136853F480731360136853F00103136001807047264A136833F4407393
:200DE000136013681360136853F0010313600170704721480168C90606D51D49CA6952F0DE
:200E00001002CA61102101600168890606D51849CA6952F00802CA612021016001684906CB
:200E200006D51349CA6952F00402CA61402101600168090606D50E49CA6952F00202CA61C5
:200E4000802101600168C90507D50949CA6952F00102CA614FF4807101600168890706D51F
:200E60000349CA6952F02002CA61022101607047D8E50420103C02400C3C0240043C0240AE
:200E800023016745AB89EFCD982F8A4291443771CFFBC0B5A5DBB5E95BC25639F111F1592D
:200EA000A4823F92D55E1CAB98AA07D8015B8312BE853124C37D0C55745DBE72FEB1DE80E8
:200EC000A706DC9B74F19BC1C1699BE48647BEEFC69DC10FCCA10C246F2CE92DAA84744A9D
:200EE000DCA9B05CDA88F97652513E986DC631A8C82703B0C77F59BFF30BE0C64791A7D513
:200F00005163CA0667292914850AB72738211B2EFC6D2C4D130D385354730A65BB0A6A7609
:200F20002EC9C281852C7292A1E8BFA24B661AA8708B4BC2A3516CC719E892D1240699D639
:200F400085350EF470A06A1016C1A419086C371E4C774827B5BCB034B30C1C394AAAD84E39
:200F60004FCA9C5BF36F2E68EE828F746F63A5781478C8840802C78CFAFFBE90EB6C50A440
:200F8000F7A3F9BEF27871C6F0B58468A308002204F0030407E000F15C0555F8226035BA0F
:200FA00041F82250521C9A42F5D300220BE000F15C0502EB830755F82360D500C5F1180526
:200FC000EE40CE55521CA242F1D3F0BD38B5044615460022626023685A6890470020606182
:200FE000A061A5604FF4003032BD0120704781604FF4003070470000425343550000000079
:2010000056352E312042534355002DAB32000000F8B50F4600251646002F18BF002E04468E
:201020000BD0396800291CBFB868002805D03268002A1CBFB068002801D1012519E03B699F
:2010400033612046FFF7C0F8796800291FBF7268002A2046FFF7B8F8B268B9682046FFF759
:20106000B3F8F96800291FBFF268002A2046FFF7ABF82846F2BD70B50E461546B1690A685D
:20108000D369044601203BB1022B01D007D370BD4968CB69032B14D0126869680CE0126810
:2010A00029682046FFF7C8F8B1694A68D369022B07D10868E96802682046BDE87040FFF79A
:2010C000BBB870BD70B50D460646286940F0010028610024B1690868C2691AB1022A0BD0B6
:2010E0001AD32FE028680021FFF7D4F868680121FFF7D0F8A86821E04968CA692868032A1F
:2011000008BF012104D00021FFF7C4F868680121FFF7C0F8A86811E028680021FFF7BAF845
:2011200068680121FFF7B6F8A8680121FFF7B2F8B0694168C869022805D1E8680021FFF7ED
:20114000A9F800E00124204670BD2DE9FC4B16460025002E1CBF0B9F002F80468B461C469D
:2011600005D0396800291CBFB868002803D101252846BDE8F68B0A98386140464A68316813
:20118000FFF797F83A685060786838B1426856F82B104046FFF78DF879684860002CB868A6
:2011A00042680CBF012121684046FFF782F8B9684860F86838B1426856F83B104046FFF748
:2011C00078F8F96848604FF00209361F15E04046FFF76FF8B96841F82900F86858B150F8EB
:2011E000292009EB4B0056F820104046FFF761F8F96841F8290009F10109CB45B8D3386812
:2012000050F8292056F829104046FFF752F8396841F82900786858B150F829200BEB090074
:2012200056F820104046FFF744F8796841F82900002CB86850F829200EBF0021201F50F8E3
:201240002910C4E770B504460D46A0694168C8690026032818D8DFE800F00707020C226A65
:20126000E8682146FFF72AF8226A68682146FFF725F8226A28682146FFF720F8226AA8689C
:201280002146FFF71BF800E00126286940F004002861304670BD000038B504460D46A06953
:2012A0004168C86903281FD8DFE800F009090210236AE269E8682146FFF708F8A8B9236AE4
:2012C000E26968682146FFF701F870B9236AE26928682146FEF7FAFF38B9236AE269A868DE
:2012E0002146FEF7F3FF00E00120296921F00401296132BDF8B5044600260D46002C18BF0B
:20130000002D5ED0287C002100F00100FFF700F8012856D0A8680021FEF7FFFF012850D012
:20132000A069016828680968FFF70DF8002848D5A0694168CA69032A06D000680168686871
:20134000FFF701F800283CD5A1690968086900281CBF4869002835D0C86918B1022831D073
:2013600032D32EE060690168236A28682246FFF72BF8A069616900680B68026801691846AA
:20138000FFF743F86069216A02680091234629681046FFF7CBF8A0696269016810680A689D
:2013A00049690346FFF731F860694168236A68682246FFF709F8606941680068FEF7C3FF54
:2013C00000B104263046F2BD60690168236A28682246FEF7F9FF60694168236A6868224632
:2013E000FEF7F2FF6069226A016800922346A069076838690A46FFF799F8A269616917680A
:2014000008683A6849680346FEF7FFFF6069216A40680091234629680246FFF787F86069C0
:20142000216A40680091234629680246FFF77EF86069216A406800912346A7693F687969AB
:201440000246FFF773F8A16960690A6840681268A9680346FEF7D9FFADE70000F0B585B0E7
:201460000F46064600210391049103A9B06903681C68F0692268FFF77CF80125040040F026
:20148000C580B06901680A68F069126804A9FFF770F8040040F0B680387C002100F0040002
:2014A000FEF736FF20B939463046FFF7CBFE0025DFF878215749D2E90034CDE900340878E7
:2014C000554B00280EBF0021042004211A585DF801005249821811600121106891605A6852
:2014E0000099504041404E481A6880EA010C01994C484A404240B0690368186894444A4A09
:2015000092EA0C0F049A14BF6FF002016FF00101FFF73AF8B069C469306A02903246F16994
:2015200003980191009063680499B8682468A0470446B0694168C869032849D8DFE800F0B3
:20154000021E283F336A049903983246FEF73CFF3A68306A0499009033461046FEF7E6FF75
:20156000306A049A0090334603981146FEF7DEFF7868316A00913346049925E03868316A04
:201580000091334603990246FEF7D0FF786817E03868316A0091334603990246FEF7C6FFDF
:2015A0007868316A0091334603990246FEF7BEFF306A0090FA6879683868334605E0386805
:2015C000316A0091334603990246FEF7AFFF00E00124B868316A0091334603990246FEF73C
:2015E000A5FF002D08BF002C04D139463046FFF753FE0446386940F00200386104A9F0695A
:20160000FEF7E1FFF06903A9FEF7DDFF204605B0F0BD00BF04E60420BC6C00082C7E82AD81
:2016200004850012FC68017AA8E29B8ECC6C00082DE9F44F05461F460E4684B06869D0F813
:201640000080D0F80490D0F808A0C0680E9C0190D7F800B0796803912A46B868029041463E
:201660002B6AB068FEF7B0FE286A00902B46B0684A464146FEF75AFF286A049900902B46DA
:20168000096842464046FEF751FF286A049900902B4649684A464846FEF748FFA8690168D1
:2016A0000A68316843464046FEF798FFA86901680A6871684B464846FEF790FFECB100215E
:2016C0004046FEF72AFE206049463A68FFF705F883467A6820684946FEF7FFFF03904946EC
:2016E000BA682068FEF7F9FF029000214846FEF714FE216841EA400121602B46286A029AF6
:2017000000904146B068FEF711FF2B6A2A4651464046FEF759FE286A019A00902B46514662
:201720004046FEF703FF286A00902B46306852465146FEF7FBFEA86901680A6843465146D8
:201740005046FEF762FE2B6A2A4659464846FEF73BFEA86901680A685B4641465846FEF797
:201760003DFFA86901680A6801995B465846FEF735FFA86901680A68534659465046FEF790
:201780002DFF286A00902B46524651464846FEF7CDFE286A019A00902B4671681046FEF7BB
:2017A000C5FEA86901680A68039B0199504605B0BDE8F04FFEF712BF2DE9F84F04461E4642
:2017C0006069D0F804A0D0F80880D0F80CB0D0F80090236A0D461746A86822464946FEF76F
:2017E000F3FD206A00902346386852464946FEF79DFE206A00902346A8684A464946FEF778
:2018000095FE206A0090234678684A464946FEF78DFE236AB86822464146FEF7D5FD206A46
:201820000090234628685A464146FEF77FFE206A00902346B86842464146FEF777FE206AE0
:2018400000902346686842464146FEF76FFEA06901680A68534659465046FEF7BFFEA069E1
:2018600001680A684B4641464846FEF7B7FE206A009023463268B8685146FEF757FE206A95
:201880000090B2683168A8682346FEF74FFE236A316822465046FEF797FD206A00907268A9
:2018A000316823465046FEF741FE206A00902346316852465846FEF739FE236A3168224650
:2018C0004846FEF781FDA1690A683068126871680346FEF783FE7168206A009023460A4635
:2018E0004046FEF723FEA0690168096842465046FEF7F8FEA1690A68306812680346414602
:20190000FEF76CFEA06901680A68316853465046FEF764FE206A009023464A46514648462D
:20192000FEF704FEA069026812687168484601B0BDE8F04F0B46FEF751BE2DE9FE4F0446C5
:201940000D4660690768D0F80490816801911646D0F80CA0316898463A464046FEF7BDFE28
:20196000834671683A464046FEF7B7FE02903A46B1684046FEF7B1FE0646236AA86822466F
:201980003946FEF721FDA06901680A6828684B463946FEF73AFDA06901680A6828683B4610
:2019A0003946FEF71BFE206A009023463A4649463846FEF7BBFDA069016809684A463846EC
:2019C000FEF7EFFEA06901680A683B4649463846FEF71BFD236A686822464946FEF7F4FC6D
:2019E000206A019A0090234628684946FEF79EFD236A224651463846FEF7E6FCA0690168C7
:201A00000A68019953465046FEF7E8FDA06901680A6801995B465046FEF7E0FD206A009010
:201A20002346A96868683246FEF780FD236A224649464846FEF7C8FCA06901680A6801982A
:201A400053465946FEF7CAFD206A009023463A4651463846FEF76AFDA0690168029B0A689D
:201A60004946384603B0BDE8F04FFEF7B7BDFEB506460C460020174601901D4622692A6181
:201A80000021207C00F00100FEF742FC012807D1387C002100F00100FEF73AFC012836D044
:201AA000207C002100F00100FEF732FC012802D12A46394609E0387C002100F00100FEF7C6
:201AC00027FC012804D12A462146FFF7A1FAF7BD3A4601A800902B46B769D7F804C0DCF818
:201AE000047021463046B8470198C10713D5C0F3400060B13046B6697768D7F800C0012322
:201B00002A462146E04720694008400002E0286940F001002861F7BDF8B50F4606461D4624
:201B2000386928611446387C002100F00100FEF7EFFB012807D1207C002100F00100FEF7D8
:201B4000E7FB01283BD0387C002100F00100FEF7DFFB012802D12A46214609E0207C002161
:201B600000F00100FEF7D4FB012805D12A463946BDE8F840FFF74CBA3946B769D7F804C0B7
:201B8000DCF808702B4622463046B847A8680021FEF7C3FB012816D128680021FEF7BDFB59
:201BA00001280CD13046B6697768D7F800C001232A462146E04720694008400002E0286976
:201BC00040F001002861F1BDBFF34F8FDFF890180A6812F4E062DFF88C0802430A60BFF308
:201BE0004F8F00BFFDE77CB5FEF764FE00200090DFF87448206850F001002060206810F0C8
:201C0000010000900098DFF8646800224FF480513000FEF75EFFDFF858584FF4805028601E
:201C2000012068600020A8600020E86029003000FEF75AFE00200090206850F0020020608B
:201C4000206810F0020000900098DFF8286801224FF480413000FEF73CFF4FF48040286059
:201C6000012068600020A8600020E86029003000FEF73AFE00200090206850F00400206069
:201C8000206810F0040000900098DFF8EC6700224FF400513000FEF71CFF4FF40050286055
:201CA00029003000FEF720FE012280213000FEF710FF80202860012068600020A860002067
:201CC000E86029003000FEF70FFE00200090206850F008002060206810F0080000900098A9
:201CE000DFF8984700224FF400412000FEF7F1FE4FF40040286029002000FEF7F5FD00F059
:201D0000E2F800F01FF800F0F7F800F0B7F8DFF8700700F088FBFEF711FF00F08CFC00F036
:201D2000A7F800F025FA00F06CF900F089F800F09FF8C820FEF726FF0221DFF84807FEF768
:201D4000D2FEF4E710B592B03021002206AC200000F0EEFC1421002201AC200000F0E8FCBA
:201D600000200090DFF82007016851F080510160006810F080500090009800F021FD00204B
:201D80000090DFF80807016851F440410160006810F44040009000980420069000200C90B3
:201DA0000120089006A800F019FD002801D000F0B4FBDFF8DC060168890889000160002061
:201DC000DFF8D0160860DFF8D006016851F480010160012006905FF4803007900020099097
:201DE00002200C905FF480000D9019200E90C8200F90022010900220119006A800F0EEFC4A
:201E0000002801D000F089FB00F0CEFE002801D000F083FB0F20019002200290002003900B
:201E20004FF4A05004904FF480500590072101A800F0F8FE002801D000F06FFB12B010BD9A
:201E400080B5DFF85806DFF858160160032141604FF4FA61816000F0A9FF002801D000F0AD
:201E60005CFBDFF84006016851F48051016001BD80B5DFF8280600F0C7FF01BD80B5DFF896
:201E80002806DFF8281601604FF482714160002181600021C16002210161012141614FF4F7
:201EA000007181610821C1610021016200214162002181620A21C16200F0ACFF002801D056
:201EC00000F02BFB01BD80B5DFF8E405DFF8E4150160002141607F218160FF21C160002163
:201EE0000161002141610021816101F0A5FA002801D000F012FB01BD38B586B014210022FC
:201F000001AC200000F014FC00200090DFF85805016851F010010160016811F010010091E8
:201F2000009900210091016851F004010160016811F004010091009900210091016851F051
:201F400080010160016811F080010091009900210091016851F002010160016811F002015D
:201F60000091009900210091016851F008010160016811F0080100910099002100910168B9
:201F800051F001010160006810F0010000900098DFF8E45400224FF400612800FEF799FD84
:201FA000DFF8C84401224FF400412000FEF791FD4FF400600190012002900020039000203A
:201FC000049001A92800FEF78FFC0220019001200290002003900020049001A9DFF8A40425
:201FE000FEF782FC4FF40040019001200290012003900220049001A92000FEF775FC07B056
:2020000030BD30B58BB06C46DFF8AC142C22200001F0C2FADFF8A4440AA90868B0F5142F85
:2020200041D200200021DFF8942409E0DFF890349B18042B02D3137851FA83F1401C521C6E
:202040000AAD2B689842F1D30AAA106800282AD06A46106881420BD00AA90868DFF8641412
:20206000884220D1694608684AF6CD3188421AD10020DFF854140860002504E0280040B2A9
:2020800001F07DFB6D1C5B2DF8DBDFF84004211D09680160DFF8381400680860206880F3DA
:2020A0000888086880470BB030BDF8B505000E00002407E0DFF81C14380001F07BFB002818
:2020C00035D1641CB4F5007F50D2DFF80C744FF480524FF4805101FB04F1380000F024FB78
:2020E000C0B2002840D1DFF8F413380001F062FB0028DFD001202870002C05D0641E4FF47B
:20210000805044436C6001E0002068602C22696811F55041300000F007FB0100C9B2002956
:2021200003D1B16A11F54841A960C0B21FE000202870002C05D0641E4FF4805044436C6006
:2021400001E0002068602C22696811F58051300000F0EAFA0100C9B2002903D1B16A11F522
:202160000061A960C0B202E0012000E00120F2BD2DE9F04F91B000F050F95FF000084AF26E
:20218000A551884200F0BC8006A903A8FFF78DFFC0B2002803D000F038F90C20B2E003A880
:2021A00000F0B3F8C0B2002803D000F02EF90E20A8E09DF80C00002804D0049810F540408C
:2021C000029001E004980290DFF80CA34FF400520299504600F0A8FAC0B2002803D000F023
:2021E00014F90C208EE00026370034004FF4005001905FF00008B14DAB4601F0A0FBADF80C
:202200000000BDF80000002807D1280001F056FB002804D05FF00A0801E05FF00B08404679
:20222000C0B2002802D04046C0B26BE000250FE0B7F5805F07D341F20400874206D310A9E4
:202240000868874202D21AF8050036186D1C7F1C01988542ECD34FF400635246A049584604
:2022600001F047FB00281BD14FF400525146584601F086FB002802D05FF0060812E01BF582
:20228000005B5FEAC97004D52D217D4800F040F903E05F217A4800F03BF919F1010901E00E
:2022A0005FF006082C19019A02996118504600F03BFA10AA11688C4209D2C0B2002806D1C5
:2022C0000198002803D04046C0B20028AED006A90868864210D100F098F800207A49086039
:2022E000002404E0200040B201F049FA641C5B2CF8DBFFF769FC03E000F087F85FF00708AB
:202300004046C0B211B0BDE8F08F2DE9F04186B0050074480590744801F066FB0400002CCF
:2023200001D101206EE0200001F072FBB0F5003F01D0012066E0002601E016F50066A8683A
:20234000B0F50060864217D2634F4FF4006269687118380000F0E8F9C0B200280AD14FF455
:2023600000623900200001F063FBB0F5003FE4D0012047E0012045E05C4F00223900200007
:2023800001F068FBB0F5003F01D001203AE0DFF860814022686836183100404600F0C4F95D
:2023A000C0B2002801D001202CE0524D4FF40053494A51480168280001F05EFB05A8049008
:2023C00040200390CDF8088020200190009740234A4A4B480168280001F064FB494988428E
:2023E00001D001200EE00598884201D0012009E0280001F0CBFC200001F0D4FC002001F0E9
:20240000E1FC002006B0BDE8F08180B54AF2A5520121274801F0D8FC01BD80B501212448B4
:2024200001F0D9FC02BD80B5374901605FF4E1314160082181600121C160002101610C21FE
:202440004161002181610021C16104F0F9FD002804D040F29B412D4800F05EF801BD000027
:202460000CED00E00400FA053038024000000240CCE104200004024000080240000C0240E5
:20248000DCE00420001C02404038024000700040083802406000474204380240ECE10420BA
:2024A00000300040082004E084E004200030014060E104200028004000D0000800C000083A
:2024C0000030FFF740E2010010E000E004E2042000E20420746C000800C00420F80F0008F8
:2024E000FFFF0908936E060000E0042080E1042020E10420A0E10420E86C0008007000089F
:20250000E46C000826C7060000140140A46C0008C9B2006841607047FEE770472DE9FC41D9
:2025200004000D001600DFF8E48100224FF400414046FEF7CEFA69460B2000F04AF807003C
:2025400069462800000CC0B200F043F8074369462800000AC0B200F03CF807436946280019
:20256000C0B200F036F807436946FF2000F031F807434FF4FA63320092B22100644800F07D
:20258000B0FC074301224FF400414046FEF7A1FA3800C0B2BDE8F6815E49097801290BD194
:2025A0005FF4801101604FF4805141604FF480728260C26001610AE05FF4001101604FF494
:2025C000805141604FF480728260C26001610020704701B582B00A0064200090012302A942
:2025E0004B4800F037FDC0B20EBD70B50400474E00224FF400413000FEF76BFA21009F2019
:20260000FFF7E7FF05002100FF20FFF7E2FF0543611CFF20FFF7DDFF0543A11CFF20FFF7F2
:20262000D8FF054301224FF400413000FEF751FA2800C0B270BD10B5374C0A212000FFF714
:20264000D4FFC0B2002800D0FEE7032229A1200001F096F9002803D101202E49087039E0A4
:20266000032225A1200001F08BF9002803D10220284908702EE0032220A1200001F080F955
:20268000002803D105202349087023E003221CA1200001F075F9002803D103201D490870D4
:2026A00018E0032217A1200001F06AF9002803D10420184908700DE0032213A1200001F001
:2026C0005FF9002803D106201249087002E00020104908700F48007800280AD00F4C20008E
:2026E000FFF75AFF60680E490860E0680D49086010BDFEE7EF401400EF4015009D601400B4
:202700009D601500BF264100C84015000000024084E0042008E20420E0E10420B8E10420EA
:20272000F8E10420FCE1042080B5FFF7F7FE02BD62F30F2262F31F42401810F0030308D04A
:20274000C91A1FD3DB0748BF00F8012D28BF20F8022D130030B414461546103928BF20E982
:202760003C00FAD8490728BF20E90C0048BF40F8042D890028BF20F8022D48BF00F8012DAB
:2027800030BC7047C91818BF00F8012DCB0728BF00F8012D70470EE00268436802440830A1
:2027A0005FEAC37C44BF4B445B1E52F804CB43F804CB091FF9D150F8041B0029ECD170476D
:2027C00081B0012003490860034800680090009801B0704720000E42007000402DE9FC413D
:2027E0000400002C01D10120C8E12078C0075FD5DFF88C03016811F00C01042909D000682F
:2028000010F00C0008280ED1DFF878030068400209D5DFF874030068800349D5606800287C
:2028200046D10120AAE16068B0F5803F06D1DFF85803016851F48031016018E06068B0F57B
:20284000A02F0AD1DFF84003016851F480210160016851F48031016009E0DFF82C030168EC
:2028600031F480310160016831F480210160606800280ED0FEF7ACF90500DFF80C030068D6
:20288000800315D4FEF7A4F9401B6528F5D3032074E1FEF79DF90500DFF8EC0200688003D2
:2028A00006D5FEF795F9401B6528F5D3032065E1207880071DD5B248016811F00C0F08D039
:2028C000006810F00C0008282AD1AE480068400226D4AD480168890704D5E168012901D0B4
:2028E00001204BE1016831F0F801226951EAC20101602078000751D5606900283DD001203A
:20290000A2490860FEF764F90500A1480068800744D4FEF75DF9401B0328F6D303202DE152
:20292000E068002818D001209A490860FEF750F9050095480168890706D4FEF749F9401B4E
:202940000328F6D3032019E1016831F0F801226951EAC2010160CCE700208E490860FEF7F2
:2029600037F90500884800688007C2D5FEF730F9401B0328F6D3032000E100208349086007
:20298000FEF726F9050082480068800706D5FEF71FF9401B0328F6D30320EFE0207840075D
:2029A00073D500267C4D2868C0000BD400200090286850F080502860286810F080500090E9
:2029C00000980126DFF8D481D8F80000C00513D4D8F8000050F48070C8F80000FEF7F8F8E7
:2029E0000700D8F80000C00506D4FEF7F1F8C01B0328F6D30320C1E0A068012805D1684839
:202A0000016851F00101016015E0A068052809D16348016851F004010160016851F001013E
:202A2000016008E05E480168490849000160016831F004010160A06800280FD0FEF7C8F88F
:202A4000070057480068800718D4FEF7C1F8C01B41F289318842F4D303208FE0FEF7B8F8B7
:202A600007004F480068800708D5FEF7B1F8C01B41F289318842F4D303207FE0F6B2012E9C
:202A800003D1286830F080502860A069002874D03B48006810F00C00082843D0A069022878
:202AA0002FD1404E00203060FEF792F80700364D2868800106D5FEF78BF8C01B0328F6D39C
:202AC00003205BE0E169206A0143606A51EA8011A06A4008401E51EA0041E06A51EA0061D8
:202AE0002848016001203060FEF772F804002868800142D4FEF76CF8001B0328F7D303203E
:202B00003CE0002027490860FEF762F804001E480068800131D5FEF75BF8001B0328F6D3A2
:202B200003202BE0A069012801D1012026E015480068A16901291ED010F48001E2699142B2
:202B400019D110F03F01226A914214D147F6C0710140626AB1EB821F0DD110F44031A26AF0
:202B60005208521EB1EB024F05D110F07060E16AB0EB016F01D0012000E00020BDE8F68194
:202B8000083802400438024000380240800E474274380240000047424038024000700040C3
:202BA000703802406000474238B50020002000901948016851F080510160006810F0805010
:202BC00000900098012015490860FEF701F80400104D2868C00308D4FDF7FAFF001B40F22E
:202BE000E9318842F4D3032012E001200C490860FDF7EEFF04002868800308D4FDF7E8FF88
:202C0000001B40F2E9318842F5D3032000E0002032BD0000047000404038024040000E42AB
:202C200044000E422DE9F04104000D00002C01D1012092E0564E306810F00F00A84207D209
:202C40003570306810F00F00A84201D0012084E02078800716D52078400704D54D48016828
:202C600051F4E05101602078000704D54948016851F46041016047490A6832F0F002A068A6
:202C800002430A602078C00735D56068012805D141480068800313D401205EE060680228A9
:202CA00002D06068032805D13B480068800107D4012052E038480068800701D401204CE04E
:202CC000344F396889088900606801433960FDF77FFF8046386810F00C006168B0EB810F39
:202CE00009D0FDF775FFB0EB080041F289318842F0D3032031E0306810F00F00854207D2FB
:202D00003570306810F00F00A84201D0012024E02078400706D51F490A6832F4E052E06853
:202D200002430A602078000707D51A48016831F46041226951EAC2010160FDF74FFF17494C
:202D4000144A1268C2F30312895CC840144908601448006804F02AFB0020BDE8F0811048B4
:202D60000068704780B5FFF7FAFF0F49094A1268C2F38222895CC84002BD80B5FFF7EFFFCD
:202D80000949044A1268C2F34232895CC84002BD003C02400838024000380240E87F00085B
:202DA00010E204200CE20420B46C000838B50400002C01D1012026E04CF6CC40216808606E
:202DC00045F2555021680860606821684860A06821688860FDF7FCFE05002068C06810F011
:202DE000030F0BD0FDF7F4FE401B3228F5D32068C06810F0030FF0D0032004E04AF6AA20F0
:202E000021680860002032BD4AF6AA21006801600020704710B50400002C01D101205FE0E0
:202E2000606A002806D16068B0F5827F06D00020E06103E000202061002060610020A0629D
:202E400094F85100002805D1002084F85000200004F014FB022084F851002068006830F089
:202E6000400021680860606810F48270A16811F404410843E16811F400610843217C11F02D
:202E800002010843217D11F001010843A16911F400710843217F11F03801084394F820104C
:202EA00011F080010843A16A11F40051084321680860A069000C10F0040094F8241011F0CE
:202EC00010010843216848602068C06930F400602168C86100206065012084F8510000208B
:202EE00010BD2DE9F84306000D0091461C0000277068B0F5827F0ED1B06800280BD10420EA
:202F000086F8510000944B469BB22A002900300000F0A0F89CE096F85000012801D10220EE
:202F200096E0012086F85000FDF752FE804696F85100012801D0022782E0002D03D0484630
:202F400080B2002801D101277AE0042086F8510000207065B563A6F83C90A6F83E900020CD
:202F600030630020B0860020F0860020306400207064B068B0F5004F0BD13068006830F022
:202F80004000316808603068006830F480403168086030680068400605D43068006850F0AC
:202FA000400031680860F068002828D109E03068007BB16B0870B06B401CB063F08F401E60
:202FC000F087F08F00282ED030688068C007EED4FDF7FEFDB0EB0800A04202D314F1010F6E
:202FE00001D1002CEDD103272AE03068C068B16B0880B06B801CB063F08F401EF087F08FE0
:20300000002810D030688068C007EED4FDF7E0FDB0EB0800A04202D314F1010F01D1002C61
:20302000EDD103270CE042462100300000F089F9002801D020207065706D002800D0012766
:20304000012086F85100002086F850003800C0B2BDE8F2832DE9FC4705000C0091469A46AD
:2030600001275FF0000895F85000012801D10220FCE0012085F85000FDF7AAFD060095F8DF
:203080005120686851461300DBB2012B0BD0B0F5827F05D1A868002802D1D2B2042A02D0A6
:2030A0005FF00208DAE0002C06D0B9F1000F03D0504680B2002802D15FF00108CEE095F819
:2030C0005100042802D0052085F8510000206865C5F83890A5F83EA0A5F83CA02C63A5F81C
:2030E00036A0A5F834A0002028640020686428680068400605D42868006850F040002A68D0
:2031000010600A9CE868B0F5006F46D16868002802D089B2012909D1286B00882968C86041
:20312000286B801C2863E88E401EE886E88E002802D1E88F002879D02868806880070FD557
:20314000E88E00280CD0012F0AD1286B00882968C860286B801C2863E88E401EE8860027F3
:2031600028688068C0070DD5E88F00280AD02868C068A96B0880A86B801CA863E88F401ED2
:20318000E8870127FDF724FD801BA042CED314F1010FCBD05FF0030860E06868002802D051
:2031A00089B2012909D1286B007829680873286B401C2863E88E401EE886E88E002802D18C
:2031C000E88F002832D02868806880070FD5E88E00280CD0012F0AD1286B007829680873CF
:2031E000286B401C2863E88E401EE886002728688068C0070DD5E88F00280AD02868C0689A
:20320000A96B0870A86B401CA863E88F401EE8870127FDF7DDFC801BA04202D314F1010F08
:2032200001D1002CC9D15FF0030817E032002100280000F0CFF8002804D05FF001082020DF
:2032400068650BE0A868002808D1002000902868C06800902868806800900098012085F86F
:203260005100002085F850004046C0B2BDE8F6872DE9F84305000E0017009846089CFDF705
:20328000A7FCB8EB00002418FDF7A2FC8146DFF8A00100684001000D00FB04F0009006E0C0
:2032A0000098002800D100240098401E0090286880683040B04201D1012000E000203900CD
:2032C000C9B288423AD018F1010FF0D0FDF780FCB0EB0900A04201D2002CE1D128684068E7
:2032E00030F0E000296848606868B0F5827F0DD1A868B0F5004F03D0A868B0F5806F05D1F0
:203300002868006830F0400029680860A86AB0F5005F0BD12868006830F400502968086005
:203320002868006850F4005029680860012085F85100002085F85000032000E00020BDE864
:20334000F2831CB504000B006068B0F5827F0DD1A068B0F5004F03D0A068B0F5806F05D18B
:203360002068006830F04000216808606068B0F5827F1FD1A068B0F5806F0DD00092002281
:2033800080212000FFF774FF002821D0606D50F02000606503201CE00092002201212000E3
:2033A000FFF766FF002813D0606D50F02000606503200EE00092002201212000FFF758FF61
:2033C000002805D0606D50F020006065032000E0002016BD1CB504000B001548006818212A
:2033E000B0FBF1F01349B0FBF1F14FF47A70414300916068B0F5827F14D10092002280216E
:203400002000FFF735FF00280FD0606D50F02000606503200AE00098401E00902068806866
:20342000000602D500980028F5D1002016BD000010E2042040420F0010B504000120002C79
:2034400001D101204AE0607F002804D100202077200003F0F3FF02206077CA2021684862A1
:20346000532021684862200000F057F80100C9B200291DD120688168DFF86400014020683F
:2034800081602068816860680143206901436069014320688160E068216808612068006960
:2034A000A16850EA014021680861200000F05CF80100C9B200290DD12168096C31F48021EB
:2034C0002268116421680A6CA1690A4321680A6401216177FF2122685162C0B210BD00000A
:2034E000BFFF8FFF38B5040000202068C06830F0A0002168C860FDF76BFB05002068C0683F
:20350000800608D4FDF764FB401B40F2E9318842F4D3032000E0002032BD70B50400002063
:2035200000262068C06840061BD42068C06850F080002168C860FDF74BFB050009E0FDF743
:2035400047FB401B40F2E931884202D30420607701262068C068400603D43000C0B2012829
:20356000EDD13000C0B270BD38B5040000252068C06830F080002168C860206880688006B1
:2035800007D42000FFF7AEFF002802D00420607701252800C0B232BD62B38B0708D0521EFA
:2035A00011F8013B00F8013B00F024808B07F6D1830740F0208000BF103A07D330B4B1E8EB
:2035C0003810103AA0E83810F9D230BC530724BFB1E80810A0E8081044BF51F8043B40F881
:2035E000043BD20724BF31F8022B20F8022B44BF0B7803707047121F17D35B0009D151F8EC
:20360000043B20F8023B1B0C121F20F8023BF6D20BE051F8043B00F8013B1B0A20F8023B80
:203620001B0C121F00F8013BF3D238BF121D521E24BF11F8013B00F8013BF8D8704730B5DB
:20364000C46803690022E31AD5188C5C0544521C082A2C77F8D330BD10F007004C4B1A687A
:203660004FF6FF010A4052EA00224A4802431A60704747480068C0F302207047010049B2D6
:20368000002908D4012210F01F018A40424940B2400941F820207047010049B200290CD41D
:2036A000012210F01F018A403C4940B2400941F82020BFF34F8FBFF36F8F7047020052B2C7
:2036C000002A04D40901364A40B2115407E00901344A40B210F00F00104400F8041C704774
:2036E00010B410F00700D0F10703052B01D3042301E0D0F10703041D072C01D2002000E036
:20370000C01E012414FA03F35B1E1940814014FA00F0401E1040084310BC704780B5411E01
:20372000B1F1807F01D301200EE0401E1E4908600F215FF0FF30FFF7C1FF00201B49086088
:2037400007201B490860002002BD80B5FFF784FF01BD70B504000D0016000020FFF789FF41
:2037600032002900FFF7BCFF0100200040B2FFF7A5FF70BD80B540B2FFF780FF01BD80B5D4
:2037800040B2FFF789FF01BD80B5FFF7C7FF02BD0CED00E00000FA0500E100E080E100E071
:2037A00000E400E018ED00E014E000E018E000E010E000E070B50D462C7834B970BD11F8A5
:2037C000013F1678B34206D0401C2146FDF746FA28B101462A4612F8013F002BEFD170BD67
:2037E00080B5FDF787FAF3202949086001BD002110F17841B1F5804F01D2002046E025499D
:203800000918B1F5804F01D201203FE022490918B1F5804F01D2022038E020490918B1F5C1
:20382000804F01D2032031E01D490918B1F5803F01D204202AE01B490918B1F5003F01D288
:20384000052023E018490918B1F5003F01D206201CE016490918B1F5003F01D2072015E090
:2038600013490918B1F5003F01D208200EE011490918B1F5003F01D2092007E00E49081843
:20388000B0F5003F01D20A2000E00B20704700000C3C024000C0FFF70080FFF70040FFF799
:2038A0000000FFF70000FEF70000FCF70000FAF70000F8F70000F6F70000F4F710B586B077
:2038C0000400FFF78DFF2000FFF791FF002101910390D0F10C00049002200590694601A806
:2038E00000F080FA002801D0012000E0002006B010BD2DE9F04104000D0016001F00002014
:203900005FF0000802E0241D18F10108B84513D2A54211D356F82820002321000220FDF77E
:20392000A9F9002806D1206856F828108842EAD0022002E0032000E00020BDE8F08100B562
:2039400087B040F6FF70FDF7D5F9684600F0A1FAFDF7E0F90298C0430005000D002801D01B
:20396000022000E0002007B000BD10B5002204E050F8224043F82240521C8A42F8D310BDCD
:203980000300002013F0030F09D0521E22BF13F8010B11F801CBB0EB0C00F3D0704711F0B7
:2039A000030F14D1121F22BF53F8040B51F804CB6045F7D0121D0AD200BA9CFA8CFCB0EBA2
:2039C0000C0038BF6FF0000088BF01207047521E22BF13F8010B11F801CBB0EB0C00F6D0BC
:2039E000521C08BF1046704710B5040008BF002408D00548054B20600822402104F1080054
:203A000000F0FEFA204610BDF8680008446C000880B500281CBF0268002A044903D05268C5
:203A20000AB190470146084602BD00BF0300020000281CBF0368002B03D0DB680BB111B9A7
:203A400012B10348704718474FF40030704700BF0300020010B500281CBF0468002C054BA4
:203A600006D02469002C18BF002901D0A0470346184610BD0300020010B50400104618BF90
:203A800000291A460AD0002818BF002A06D021610146204600F0B8FA014B636110BD00BF57
:203AA000FEAF1C5E2DE9F84F92B000240D4605940494089407940694A5B316001FBF1C9FC0
:203AC000002FDDF87880B8F1000F2BD0040029D06069A449884225D12069C169686A0142FC
:203AE00008BFA14E1FD095F82800C10758BF9F4E7AD500932968886800F091FA814609F101
:203B000007004FEAD00A2868006800F088FAC01D4FEAD00B0098B0EB4B0F04BF1F98B0EB8E
:203B20004A0F01D0924E5FE023692246294609A800F08EFA0F988F4D01688A68126805A9AA
:203B40002046FCF716FD08B12E464DE00F9801688A68126804A92046FCF70BFD08B12E46E8
:203B60003EE00F9801688A68126808A92046FCF700FD002840F08880059A514608EB0A0011
:203B800000F074FA05980021FCF7C7FB012807D00F98016805988968FCF7D5FB002801D4F6
:203BA000754E15E009A800F0A4FA08B12E460FE0119A059809A9FCF781FB049B089A0599AA
:203BC00009A800F09EFA98B12E4609A800F0C7FA08A92046FCF7F7FC04A92046FCF7F3FC9B
:203BE00005A92046FCF7EFFC304613B0BDE8F08F1D99049AB9EBC10F0BD25146384600F0CC
:203C000035FA049AC9EBCA094946104600F0AAFA02E0384600F02AFA0F980168049B8968C3
:203C20000A461846FCF7DAFC1198049A0899009009AB1046FCF77AFC059A5146404600F076
:203C400015FA05980021FCF768FB012807D00F98016805988968FCF776FB002801D4464EAE
:203C6000B3E71198059A0899009009AB1046FCF75DFC09A800F073FA08A92046FCF7A3FC24
:203C800009A800F09AFA08B12E46A5E707A909A800F09BFA08B12E465FE006A909A800F094
:203CA00094FA08B12E4654E0069802685946304600F0DCF906984268594606EB0B0000F060
:203CC000D5F9069880680121FCF7E4FA0698016941F00201016109A80F9E0799049B069AC2
:203CE000009177690599D7F800C0E04718B1042810D1224E29E00798214E007C002100F015
:203D00000100FCF705FB01281FD0079909A8FDF7A5FB08B12E4618E00F98016807988968ED
:203D2000049B00680A46FCF759FC2098154A16491368039000930296019151460498036805
:203D4000021D404600F09EFA064606A909A800F011FB07A909A800F00DFB09A800F0FFF99C
:203D60003AE700BFFEAF1C5E0E0006000F000600030006000C0006000900060008000600DB
:203D8000936E0600F46C000826C7060010B5040007D000F01FFB2046BDE81040182100F093
:203DA00027BB10BD80B500281CBF0268002A044903D012680AB190470146084602BD00BF49
:203DC0000300020000F018BB00230068503010EB81000260704700220068503010EB8100F5
:203DE000006870472DE9F84306000F0001200020DFF8F051287E012801D1022047E00120DA
:203E000028764CF250394846FCF78BFF04002000C0B2002837D15FF0FF3038603068012895
:203E200010D171683069C0B200F044F84846FCF778FF0400DFF8B0110A68DFF8B0010240C1
:203E40000A601EE0D6F8088001E018F10108F168B0684118884514D23169C9B2404600F0A9
:203E60004BF84846FCF75DFF0400DFF87C01016831F0FA0101602000C0B20028E5D0C7F8B6
:203E8000008000F086F8002028762000C0B2BDE8F28310B504000F20206000F062F8A06008
:203EA00000F063F8206100F057F8207600F06CF8606110BDDFF83021136833F4407313608F
:203EC000032906D1116841F4004151F0040111600AE0012904D1116851F00401116003E03D
:203EE000116851F4004111601168C0B251EA002151F480311160704700220A00D2B2002A13
:203F000001D100210EE00A00D2B2012A02D14FF4807107E0C9B2022902D14FF4007101E00B
:203F20004FF440710C2800D3001D2F4A136833F440731360136819431160116831F0F8014D
:203F40001160116851EAC00151F002011160106850F48030106070472648006810F0E0007D
:203F600070472348008880B27047AA2022480178CC2901D1CC2005E00078AA2801D1AA2083
:203F800000E05520C0B270471A48007810F00C0070471A48016889050FD5016831F40071CA
:203FA0000160016851F400610160016831F400610160016851F400710160016849050FD5C5
:203FC000016831F480610160016851F480510160016831F480510160016851F48061016081
:203FE00070470000D8E50420103C0240FB7FFFFF163C0240143C0240153C0240003C0240EC
:204000000360C160026170470023002918BF002A04D00160426000218360C1607047F8B555
:20402000054600222E6834000BE057421743FF4355F82410F80FFCF73CF90246A6EBD77653
:20404000641EF2D1104600F005FD00EB4610F2BD10B5002818BF002901D1012010BD002412
:2040600044618161C2610362002010BDF8B50AB110B909B10120F2BD1368CC1CB3EB940FE5
:2040800001D20320F2BD79B38B085B1C01240FE0A1EB840505446F782E783F0447EA066765
:2040A000AE78ED7847EA06272F4342F82470641C9C42EDD31568A54222BF002642F8246090
:2040C000641CF7D211F0030111D0047842F8234001248C420BD252F82350065D46EA05264D
:2040E00042F82360641CF4E71046FCF7D3F80020F2BD024690690068C168D369806800F0DF
:20410000BBBCFEB504000D4618BF002D16461F460DD0002E18BF002F09D0A069016888680D
:204120002A6801688A4224BF3B688B4201D20120FEBD3A466FF00101FCF726FAA069D0F8F1
:204140001CC0206A02902246E16901910096DCF80430DCF8004039462846A047FEBDC169B8
:2041600000F0A3BCF0B50023202928BF012322D214680568AC4238BF03231CD301240AE0EE
:2041800000EB8407C1F1200E7F6807FA0EF73E4342F824602C4650F824600768CE40651C61
:2041A000BC42EDD342F8246002E042F825306D1C1068A842F9D21846F0BD024690690068A8
:2041C0004168D369006800F057BC70B505460E46E8691422FCF73AFB040049D13168002045
:2041E0000861AA6910680368E8691A68FCF7C1F9040038D1A869016830680A68126800F1E4
:204200000801E869FCF7B5F9040028D1A8694268D3693168032B30D000680268E86912684B
:20422000091DFCF7A6F9040013D1A8694268D3693168022B1ED100680268E86912680C3158
:20424000FCF797F9040013D03068011DE869FCF7BAF9306800F10801E869FCF7B4F931682B
:20426000E869FCF7B0F9E86914223146FCF70DFB204670BD0020C860FAE700224A60CA60A6
:20428000F6E700002DE9F84F1D46DDF828900B9F0D9C4FF0FF3300930E469246D9F800B0F0
:2042A000804632465146D847834664B3D9F8043032465146404698476FEA0B02521C42EAB1
:2042C0000B0200996FEAD2735B1C1940C2430091521C024300996FEAD2735B1C19400091E9
:2042E00086F05531484087EA000181F05531216080F05531C943491C0843009A6FEAD0706B
:20430000401C82430092D9F80800012809D17540E943491C0D4300986FEAD572521C9043FF
:204320000AE0F11C85EA9102D243521C154300986FEAD5735B1C984386F0AA36009086EAC8
:204340000B0686F0AA33F243DB430C98C2F3C0725B1C42EAD3720099D243521C91430091B2
:20436000774000998843009987F0AA370F403843BDE8F28F70B50C4600250646002C1ABF54
:2043800020680028012523D0B1694A68D369022B04D100F10C01F069FCF715F9B069416830
:2043A000C869032804D02168F069091DFCF70BF9206800F10801F069FCF705F92168F06920
:2043C000FCF701F9F06914222146FCF75EFA2560284670BD10B504466168206800F072FBD2
:2043E000002000210022002384E80F0010BD0000002200F06BBB000000207047BBBBE1B1D8
:20440000B2F5803F80F07E80022A1ED98C46B1FBF2F102FB11C31B0443EA1043B3FBF2FC38
:2044200002FB1C3380B240EA0343B3FBF2F002FB103240EA0C4000237047022A05D984469B
:20444000B0FBF2F002FB10C270474AB105D100F0010249085FEA3000704700220023704708
:2044600000F04EBB0B000200002100207047904271EB030CF6D3B3F5803F2FD2F0B5B3FA7E
:2044800083F7B1FA81F4A7F10F0E3D1B5340CEF1200602FA0EF2F3415340B5F10F0746D860
:2044A0000F3C2C444140C4F12006A040F1414140B1FBF3F603FB1611A2FB0645001BA941AB
:2044C00002D2761E8018594180EA010221FA0EF362FA0EF200215A403046F0BD30B4B1FBEF
:2044E000F3FC03FB1C11A2FB0C45001BA94103D2ACF1010C8018594130BC02460B466046D3
:2045000000217047B2F1807F65D3F0B5B2FA82F7B1FA81F4C7F10F063D1B22FA06F307F1CD
:20452000110EF24120355A40B5F10F07B8D94140C4F12006A040F1414140B1FBF3FC03FB65
:204540001C11A2FB0C45001BA94103D2BCF1010C801859410F2F12D30F3FC90341EA504181
:20456000B1FBF3F603FB1611A2FB0645D4EBC030A94102D2761E8018594146EACC3C07B374
:204580004140C7F12006B840F1414140B1FBF3F603FB1611A2FB0645001BA94102D2761E02
:2045A0008018594180EA010221FA0EF3C7F1200462FA0EF20CFA07F05A402CFA04F13043E3
:2045C000F0BD80EA010221FA0EF3002162FA0EF260465A40F0BD8C46B1FBF2F102FB11C309
:2045E0001B0243EA1063B3FBF2FC02FB1C331B024CEA002043EA1063B3FBF2FC02FB1C331B
:204600001B024CEA002043EA1063B3FBF2FC02FB1C331B024CEA002043EA1063B3FBF2FCF0
:2046200002FB1C324CEA002000237047F8B5040000200020207810F0430F53D0DFF83C628C
:2046400000203060FCF7C4FA0500DFF834723868000106D5FCF7BCFA401B0328F5D30320E1
:204660000AE12078C00707D56068A168090751EA8011DFF8100201602078800715D5DFF83D
:2046800004120868C0F302706268E3681B0653EA821353EA00730B60DFF8EC0101684909CD
:2046A0004901E269521E11430160207840060AD56068E168090651EA8011A06851EA0071E3
:2046C000DFF8C001016001203060FCF781FA05003868000106D4FCF77BFA401B0328F7D38A
:2046E0000320C9E0207810F00C0F53D0DFF89C6100203060FCF76CFA0700DFF884512868F8
:20470000800006D5FCF764FAC01B0328F5D30320B2E02078400716D5DFF874110868C0F321
:204720000270226963691B0653EA821353EA00730B60DFF85401016831F4F851226A521EA3
:2047400051EA022101602078000714D5DFF840110868C0F303602269000650EA8210A269FC
:2047600050EA02700860DFF820110A6832F44032606A02430A6001203060FCF729FA0600CD
:204780002868800006D4FCF723FA801B0328F7D3032071E02078800665D500200090DFF83C
:2047A000F400016851F080510160006810F0805000900098DFF8E060306850F48070306056
:2047C000FCF706FA05003068C00506D4FCF700FA401B0328F7D303204EE0DFF8C0502868A5
:2047E00010F44070002820D0A16A11F4407188421BD0286830F44070DFF8A41001220A60FB
:2048000000220A6028602868C0070ED5FCF7E0F906002868800708D4FCF7DAF9801B41F2F1
:2048200089318842F5D3032026E0A06A10F44070B0F5407F0BD1DFF86C00026832F4F81228
:20484000A36ADFF8641019401143016005E0DFF85400016831F4F81101602868A16A090541
:20486000090D084328602078C00604D594F82C00DFF8381008600020F2BD00006800474219
:2048800000380240843802408C38024070004742883802404038024000700040703802404B
:2048A000400E474208380240FFFCFF0FE011474238B504000020FCF78BF90500002C01D191
:2048C000012065E0606A0028022084F83500002084F8340020680068400840002168086074
:2048E00020680068C0070BD5FCF772F9401B0628F6D320206065032084F83500032047E04E
:2049000020680168DFF8BC00014060680143A0680143E06801432069014360690143A0690B
:204920000143E0690143206A0143606A042804D1E06A01430800216B014320680160206836
:204940004569ED08ED00606A0543606A042810D1A06A0543E06A00280BD0200000F036F801
:20496000002806D040206065012084F8350001200EE020684561200000F00BF83F22E16D43
:204980008A40826000206065012084F83500002032BD017801F0FF0110391822B1FBF2F129
:2049A000094A525CC265042905D30168890A8902091D816503E00168890A89028165806DFA
:2049C000704700003F8010F0AC6C0008010000208B6A8A69002A14D1002B05D0022B03D029
:2049E00007D3032B0BD00BE0C96AC90100D501202EE0C96AB1F1C07F00D1012028E027E0D3
:204A000026E08A69B2F5005F15D1002B05D0022B03D004D3032B07D00CE0012018E0C96A9D
:204A2000C90100D5012013E0C96AB1F1C07F00D101200DE00CE0002B022B02D9DB1E02D0E6
:204A400006E0012004E0C96AC90100D50120FFE7C0B2704710B50146202001221F2321FA9D
:204A600003F404F0010484F001042240801A5B1E13F1010FF3D110BDF8B5174605460E460A
:204A80002A681846520007F10801FBF772FD040009D17E603D6007F10C01686800F031F82B
:204AA000F8684042F8602046F2BD0A4600210160C160816821B100F108011046FBF783BD77
:204AC000704700000022FDF737BE000000B500BF130096469446103928BFA0E80C50FAD8F1
:204AE0005FEA417C28BF0CC048BF40F8042BC90728BF20F8022B48BF00F8012B00BD0000AB
:204B00007047F0B503460E4601274FF0030C02241F22002507FB03F00CEA00000021001B73
:204B2000A94124EA0101CF1964004FEA4C00521E80F0010CEED13760F0BD2DE9F14F91E8EB
:204B4000C05F2DE900509C46DDF830E020C80D9CDEF80000A5FB062302FB04F44FF00001A4
:204B6000E4FB6021DEF804004FF00002E5FB6732E0FB6413CCF80010DEF808004FF00001FD
:204B8000E5FB6821E0FB6432CCF80430DEF80C004FF00003E5FB6913E0FB6421CCF8082077
:204BA000DEF810004FF00002E5FB6A32E0FB6413CCF80C10DEF814004FF00001E5FB6B218A
:204BC000E0FB6432CCF8103000984FF00003E5FB6013DEF81800E0FB6421CCF81420019854
:204BE0004FF00002E5FB6032DEF81C00E0FB6413CCF81810D118CCF81C104FF0000141EB8D
:204C000001010C91029DDCF800206D680D9CDEF800004FF00003E5FB662302FB04F44FF02F
:204C20000001E4FB6021DCF80420DEF80400E5FB6732E0FB6413CCF80010DCF80810DEF8E0
:204C40000800E5FB6821E0FB6432CCF80430DCF80C30DEF80C00E5FB6913E0FB6421CCF808
:204C60000820DCF81020DEF81000E5FB6A32E0FB6413CCF80C10DCF81410DEF81400E5FBB2
:204C80006B21E0FB6432CCF81030DCF818300098E5FB6013DEF81800E0FB6421CCF81420C6
:204CA000DCF81C200198E5FB6032DEF81C00E0FB6413CCF818100C984FF00004801844EBFB
:204CC0000401C01844EB0402CCF81C0001EB02000C90029DDCF80020AD680D9CDEF8000031
:204CE0004FF00003E5FB662302FB04F44FF00001E4FB6021DCF80420DEF80400E5FB673229
:204D0000E0FB6413CCF80010DCF80810DEF80800E5FB6821E0FB6432CCF80430DCF80C30C1
:204D2000DEF80C00E5FB6913E0FB6421CCF80820DCF81020DEF81000E5FB6A32E0FB641331
:204D4000CCF80C10DCF81410DEF81400E5FB6B21E0FB6432CCF81030DCF818300098E5FB1C
:204D60006013DEF81800E0FB6421CCF81420DCF81C200198E5FB6032DEF81C00E0FB64131B
:204D8000CCF818100C984FF00004801844EB0401C01844EB0402CCF81C0001EB02000C90FD
:204DA000029DDCF80020ED680D9CDEF800004FF00003E5FB662302FB04F44FF00001E4FBCD
:204DC0006021DCF80420DEF80400E5FB6732E0FB6413CCF80010DCF80810DEF80800E5FB37
:204DE0006821E0FB6432CCF80430DCF80C30DEF80C00E5FB6913E0FB6421CCF80820DCF853
:204E00001020DEF81000E5FB6A32E0FB6413CCF80C10DCF81410DEF81400E5FB6B21E0FBA5
:204E20006432CCF81030DCF818300098E5FB6013DEF81800E0FB6421CCF81420DCF81C207B
:204E40000198E5FB6032DEF81C00E0FB6413CCF818100C984FF00004801844EB0401C0188C
:204E600044EB0402CCF81C0001EB02000C90029DDCF800202D690D9CDEF800004FF00003A9
:204E8000E5FB662302FB04F44FF00001E4FB6021DCF80420DEF80400E5FB6732E0FB641377
:204EA000CCF80010DCF80810DEF80800E5FB6821E0FB6432CCF80430DCF80C30DEF80C0090
:204EC000E5FB6913E0FB6421CCF80820DCF81020DEF81000E5FB6A32E0FB6413CCF80C1092
:204EE000DCF81410DEF81400E5FB6B21E0FB6432CCF81030DCF818300098E5FB6013DEF812
:204F00001800E0FB6421CCF81420DCF81C200198E5FB6032DEF81C00E0FB6413CCF81810D6
:204F20000C984FF00004801844EB0401C01844EB0402CCF81C0001EB02000C90029DDCF8D4
:204F400000206D690D9CDEF800004FF00003E5FB662302FB04F44FF00001E4FB6021DCF8C8
:204F60000420DEF80400E5FB6732E0FB6413CCF80010DCF80810DEF80800E5FB6821E0FB86
:204F80006432CCF80430DCF80C30DEF80C00E5FB6913E0FB6421CCF80820DCF81020DEF80F
:204FA0001000E5FB6A32E0FB6413CCF80C10DCF81410DEF81400E5FB6B21E0FB6432CCF8B0
:204FC0001030DCF818300098E5FB6013DEF81800E0FB6421CCF81420DCF81C200198E5FBBB
:204FE0006032DEF81C00E0FB6413CCF818100C984FF00004801844EB0401C01844EB04022F
:20500000CCF81C0001EB02000C90029DDCF80020AD690D9CDEF800004FF00003E5FB662353
:2050200002FB04F44FF00001E4FB6021DCF80420DEF80400E5FB6732E0FB6413CCF800106A
:20504000DCF80810DEF80800E5FB6821E0FB6432CCF80430DCF80C30DEF80C00E5FB691366
:20506000E0FB6421CCF80820DCF81020DEF81000E5FB6A32E0FB6413CCF80C10DCF8141054
:20508000DEF81400E5FB6B21E0FB6432CCF81030DCF818300098E5FB6013DEF81800E0FB75
:2050A0006421CCF81420DCF81C200198E5FB6032DEF81C00E0FB6413CCF818100C984FF045
:2050C0000004801844EB0401C01844EB0402CCF81C0001EB02000C90029DDCF80020ED69A0
:2050E0000D9CDEF800004FF00003E5FB662302FB04F44FF00001E4FB6021DCF80420DEF823
:205100000400E5FB6732E0FB6413CCF80010DCF80810DEF80800E5FB6821E0FB6432CCF884
:205120000430DCF80C30DEF80C00E5FB6913E0FB6421CCF80820DCF81020DEF81000E5FBD7
:205140006A32E0FB6413CCF80C10DCF81410DEF81400E5FB6B21E0FB6432CCF81030DCF8EA
:2051600018300098E5FB6013DEF81800E0FB6421CCF81420DCF81C200198E5FB6032DEF8C5
:205180001C00E0FB6413CCF818104FF000040C98801844EB0401C01844EB0402CCF81C0015
:2051A00001EB0200BCE8F000BEE8000FB4EB080175EB090176EB0A0177EB0B01BCE8F00038
:2051C000BEE8000F74EB080175EB090176EB0A0177EB0B0161EB010108446FEA0000ACF1DE
:2051E000200CAEF1200EBCE8F000BEE8000F08EA0008B4EB080409EA000975EB09050AEA6A
:20520000000A76EB0A060BEA000B77EB0B07BEE8000FBCE80E4008EA000871EB080809EA9F
:20522000000972EB09090AEA000A73EB0A0A0BEA000B7EEB0B0BACF1200C8CE8F00F03B018
:20524000BDE8F08F2DE9F04F99B00E464FF0FF3112911191109101911746012105461791DF
:205260000022079206921C46A9690868026813680A934FF00209CA681368049309920498B0
:20528000DFF83426401E400802EB80031A1F0C92DFF82826DDF8888002EB8000031F0B93C1
:2052A0004868C169022908BF4FF0030941462846FBF708FF41462846FBF7C4FFA8690068C6
:2052C0000894C169012910D081683046FBF73BF8002807D5A869016808988968FBF733F84E
:2052E000002802D401200590E1E2A86941688A69E869920005F11401FBF7A8FA002805904B
:20530000F2D100240CE009680A686969126801EB8401FBF72EF90028059040F0BD82641C55
:20532000A9694A689369E8699C42ECD3049B0122991E8A409200159202A9FBF787FA0028FD
:20534000A346059040F09F8204990120891E002400FA01FA10E0029800EB84012846FEF7A3
:2053600034FF0028059040F08782029850F824102846FBF7A7FE641C5445ECD303951894CD
:2053800000213C46207C00F00400FAF7C1FF20B9179021460398FBF755FF03982146FBF76D
:2053A000A9FF0028059040F05C8203988569029F6D683A68EF6801232146B847029900203D
:2053C00000902246039885696D684B6809682F69B847039F022510E00298D7F818C050F87A
:2053E00025300268DCF804E0DEF814C000EB85006D1C50F8041C3846E047012055450E902D
:20540000EAD30898FEF70BFE05463046FEF707FE85422CBF08983046FEF701FE0D960F9474
:20542000019D129C119EDDF840A0CDF85890814675E0DDF830C0039A0698169E0191101A83
:20544000A0F1010E4FEADE0E401E06218000009100F01C005CF82EC0099A2CFA00F0131DBA
:20546000111D00F00F000A9A4643761C724301EB82020A990120FBF768FE0298026839467C
:205480000120FBF7F8FD3AE00399081A0B99421ED208401E51F82250800000F01C00C540A4
:2054A0009DF8026005F00F05761B76B2AEBB02980168069A01988242BBDA0C9EDDF818C0DE
:2054C000169A099801914FEADC0C06210091031D56F82C60DDF818C00A994FEA8C0E0EF0F5
:2054E0001C0E26FA0EF606F00F067243521C001D514300EB81020A990120FBF726FE02999C
:20550000002000904346BE69D6F804C00A68DCF8106041463846B047109EA9F10109B9F1EB
:20552000000FD8BF002C06DCBAF1000FDCBF002E002D40F33A81B9F1000F0AD4D7F818C0DB
:20554000DCF804E0DEF80CC00123424641463846E047002C02DD641E64B206E0BAF1000FD6
:20556000C4BFAAF101004FFA80FA002E02DD761E76B203E0002DC4BF6D1E6DB204990E9800
:20558000491C8840401E8DF8030004980E99421E914001910498049A411E8DF80210A2EB35
:2055A00009020E9804998DF80120884004990390A9EB01011491C9F10102049904988DF849
:2055C0000020A9EB01011291401C002CA9F101014FF0FF32C8BFBAF1000F139011911092B6
:2055E00056DCB9F1000F06DD119A0D98022102F049FAC0B207E00D9841689DF8000001FAFE
:2056000000F000F00300002C41D5BAF1000F3FDC00F0010191EA600F00F0808014980028F0
:2056200005D4129A13990D9802F02CFA08E00D9841689DF8010001FA00F09DF803100840D5
:20564000019A0199801AC0B2884207900BDA0B980799C90850F821200798810001F01C01F8
:2056600022FA01F00CE00399081A0B99421ED208401E51F82210800000F01C0021FA00F025
:205680009DF8024000F00F0AA4EB0A0464B2002C44D107980199884216DA0C980799C9082E
:2056A00050F8210007998A00B96902F01C02D0404A68546910F00F00434601D10F9A29E08A
:2056C000029951F8202025E003980799411A0C984A1ED208491E50F82200890001F01C01BD
:2056E000C84002990A6810F00F000CBF0F9951F820100120FBF78CFC02980268394601205B
:20570000FBF7B9FCBC690298D4F804C00268DCF81440434641463846A047109C002EC8BF2B
:20572000002D15DCB9F1000F06DD119A0898022102F0A8F9C0B207E0089841689DF8000077
:2057400001FA00F000F00300002E7FF5AFAE002D3FF7E3AE00F0010191EA600F3FF4DDAEDE
:205760001498002805D4129A1399089802F08AF908E0089841689DF8010001FA00F09DF8C8
:2057800003100840019A0199801AC0B288420690BFF67AAE0B980699C90850F821500698C6
:2057A000810001F01C01CD407AE60397B9F1000F0D9C0F9E089FDDF828A0099D46D10398A8
:2057C000D0F818E0DEF80490D9F80CC0012342464146E0472079C10717D5029802683146E0
:2057E0000120FBF715FC0298026803990120FBF742FC0398D0F818C0029ADCF8044012682B
:20580000D4F814C043464146E0473879C1071DD502980168019106220092281D00EB8A023B
:205820002B1D51460120FBF790FC0298026803990120FBF720FC02990020009043460398AC
:2058400087697C680A6827694146B847179840B903983146FBF720FD059041460398FBF77A
:205860001BFD039D189C07E0029800EB8401091F2846FEF77FFD641E002CF5D1159AE86950
:2058800002A9FBF702F85C4606E0696901EB8402111FFAF798FE641EE869002CF5D1A96917
:2058A0004A689269920005F11401FAF7EEFF059819B0BDE8F08F00BFD07F0008DC7F0008BD
:2058C0002DE9F44F8CB0074601208B4609900022B9698869466804921C4600215846FAF7D0
:2058E0001CFD50B9B8690068C169012908D081685846FAF728FD002802D44FF00108D7E136
:20590000B86941688A69F869920007F11401FAF79DFF5FEA0008F2D100250CE009680A6835
:205920007969126801EB8501FAF723FE5FEA000840F0B3816D1CB9694A689369F8699D4239
:20594000ECD34FF00109721E09FA02F29200089201A9FAF77BFF5FEA0008AA4640F09481F1
:20596000002510E0019800EB85013846FEF72DFC5FEA000840F08181019850F82510384655
:20598000FBF7A0FB6D1C711E09FA01F18D42E9D302970B95039421460298FBF793FB9BF8FE
:2059A000040000F0010007904FF00008029881690A68079892685946C0F10100FAF73CFC0B
:2059C000DBF80000C6EB40155BF82000FFF742F8DBF80010491E00EB4110711E09FA01F141
:2059E000491E059109FA06F2069234460A902DE04246611C584602F045F806460698301AF0
:205A000002F06BF8074604EB080000900146284602F05CF806990022FAF74BFC40EA5707E1
:205A20000A98414602F052F8E64006F00106631E059A9E4046EA0701FAF73BFC03464246AF
:205A4000611C584602F051F8DDF80080A845CFD3651C42462946584602F014F84308424625
:205A60002946584602F041F80C98007C002100F00400FAF74DFC20B909900C990298FBF7DC
:205A8000E1FB0C990298FBF735FC5FEA000840F0E980019802680298866975680C992E683A
:205AA0000123B04701990C9A002000900298866975684B680968D5F804C0E047611E8DF895
:205AC000001002259DF80000029F09FA00F60EE0D7F818C050F82530DCF804E0DEF808C0D8
:205AE00000EB8501384651F8041CE0476D1C01980268B542ECD30C990120FBF789FADBF8D7
:205B000000506D012A1B611E584601F0BBFF019951F82010039A0120FBF77AFAA5EB4405AA
:205B200002952EE0D7F818C0DCF804E0DEF800C001234A4649463846E0476D1EF2D1049DF4
:205B400001990698CDF80C90F54005F00105454051F8262085F0010539462846FBF78BFA89
:205B60000498039BB5404540019804951946BD6950F826206E68B5683846A8470298001B17
:205B800002900298A04210D302462146584601F079FF9DF800200599DDF80C9020FA02F38B
:205BA000069301EA00062500C8E700222146584601F068FF9DF80020059920FA02F301EABB
:205BC000000B019850F82B20049820FA0BF000F001004340394683F00100FBF74CFA2546D3
:205BE000039C07E0D6F800C00123224621463846E0476D1EB8694668002DF3D102972146AE
:205C00000198036850F82B20B5683846A8470198026890680021FAF780FB0346019802688F
:205C2000029886697568D5F800C02146E0470198016822460120FBF7EBF9079802992246E0
:205C4000C0F10100FBF717FA099858B90C990298FBF722FB80460C98A04203D0029821466F
:205C6000FBF71AFB029F0B9D07E0019800EB8501091F3846FEF77EFB6D1E002DF5D1089AAF
:205C8000F86901A9FAF701FE554606E0796901EB8502111FFAF797FC6D1EF869002DF5D1A0
:205CA000B9694A689269920007F11401FAF7EDFD40460DB0BDE8F08F2DE9F64F06468BB052
:205CC0008946B1690A689068FEF7A9F9B1698A681368B0FBF3F81D465A1E009305FB180532
:205CE0008DF8102001239DF8100083405B1E099300270A6813681C680594022302970793C5
:205D00008A6806924868C169022904BF0320079000214846FAF701FB50B9B0690068C16927
:205D2000012907D081684846FAF70DFB002801D4012493E1B06941688A69F069920006F1C5
:205D40001401FAF783FD0400F3D1BA460DE00068016870690A6800EB8A01F069FAF709FC27
:205D6000040040F06F810AF1010AB06941688A699245ECDBCDF828A002A93046FEF725FAE4
:205D8000040040F0548102993046FBF79BF999F8040000F0010008904446B1690868826847
:205DA00008984946C0F10100FAF746FADDF800A0B8460BE008F1010B04FB0B520121484662
:205DC00001F060FE00FA08F00743D846AAF101008045EFD30C993046FBF774F90C98019048
:205DE000062100917F1C069A0798131D111D059A47437F1C574301EB870205990120FBF72F
:205E0000A4F9A71E52E07A1904FB0B22521C0121484601F037FE00FA0BF040EA08080BF1C0
:205E2000010BD345EFD3D6F818E09DF81000DEF804C00C9ADCF800C028FA00F000F0010B2F
:205E4000012311463046E0470298DDF81CE0DDF814C00190062106980091021DABF1010172
:205E6000099881EA08010840401C00FB0EF0401C00FB0CF002EB8002002361460120FBF7D1
:205E800064F9029ACBF1010B31465846FBF7F3F8002000903046D6F818C0DCF804E00C9B24
:205EA000029ADEF804C01946E0477F1E681E8041B7EBD07F03DB4FF00008C346B1E79DBB33
:205EC000002709E004FB07F2521C0121484601F0D9FDB84005437F1C5745F3D3B4696468AF
:205EE0000C9AD4F800C0012311469DF8100025FA00F73046E0470298DDF81CA0059C019040
:205F000006210698009107F00107021D791E09984D4005406D1C05FB0AF56D1C6543002327
:205F200002EB850221464BE00698059A6F1E011D0C9D01EB8204924629E001232A46294674
:205F40003046E0477A1C0121484601F09BFD804602980190062100910023224651460120E9
:205F6000FBF7F3F8029AC8F1010831464046FBF782F8002000902B46D6F818C0DCF804E0FE
:205F8000029ADEF804C029463046E0477F1EB0694168D1F800C0002FCFDC2A460C950123C8
:205FA00011463046E04701220121484601F06AFD0746062102980091019000232246514670
:205FC0000120FBF7C2F8029AC7F1010731463846FBF751F803A800903046B46965680C9B26
:205FE000029A6C681946A047B4696568039B0C9AD5F800A003F0010311463046D047B0695C
:206000000168089C8A68C4F1010449462046FAF713F90C9A31462046FBF72DF80C99304620
:20602000FBF73AF9044602A93046FEF7A3F9DDF828A007E0716901EB8A02111FFAF7C3FA8B
:20604000AAF1010AF069BAF1000FF3DCB1694A689269920006F11401FAF717FC20460DB02C
:20606000BDE8F08F2DE9F24F8AB0834601208DF8080000240A98DDF85490012617460025CC
:2060800007950195AA460168012988BFDEB20121701E8140890009910A4601A94846FAF767
:2060A000D5FB0028049040F0EF80A8460CE038680199026801EB88014846FAF75AFA0028C7
:2060C000049075D108F101080120721E904080450690ECD30198CDF80CB000210068FAF7B5
:2060E000D9F814980021FAF7D5F80198026803990120FAF769F8DDF858B00097002707E0B0
:2061000001980068009A5B460146FAF75DF97F1C701E8742F4D3009905965846731E012771
:206120008DF809308B4606460CE000965B460198039950F8272000EB870C7F1C5CF8040C20
:20614000FAF7F4F906988742EFD316960A980168149806910021FAF79DF8149A039901202C
:20616000FAF732F80120089015E00A98069950F821000699491E2022079006918DF8082089
:2061800007980799C00F49002A0007913BD1002801D043D001259DF80800411E8DF808100F
:2061A0009DF808000028EBD106980028DDD1022D1CD1E0B2D0B1E5B2149C169E059F3346A3
:2061C0005A4621462046FAF7FFF808994FEA4A0AB9405FFA8AF0084206D000965B4603997D
:2061E00022462046FAF7A2F96D1EE8D1B8F1000F45D0019800EB8801091F4846FAF7E3F9A4
:20620000A8F10108F2E7012D08BF002806D11499169B5A460846FAF7D7F8BCE70599059A23
:20622000641C091B884040EA0A0A0225E0B29042B1D1149D169C0027164606E023465A46D2
:2062400029462846FAF7C0F87F1CB742F6D31495169405965FFA8AF4169A089D9DF90900A2
:20626000019900928540149A24EA050A51F82A105B461046FAF75AF90024A2468AE7099A84
:2062800001A94846FAF701FB04980BB0BDE8F08F0500000001000000000000000000000058
:2062A000FFFFFFFFFFFFFFFFFFFFFFFFFEFFFFFF000000003C14A918D430E77901B6ED5F77
:2062C000FC95BA75102562772B73FB79C65537A5765F90180A5695CE5753F2DD5CE419BA1B
:2062E000E4B84A8B25F321DD8886E8D2855D882518FF718527C1EB4E903FACFFFB817D0817
:206300004AF827B098BCCB87DD77AD667E74FFB63F6A9326EBA783C91F5C4CB01AFE610878
:20632000AD473E588EE92E1A3108827807CC87E5296AF0D5F5615CC4AE8A1BBE7D53B994A6
:206340009A64EC900CC276D0AAB51C94C8230589059607C9104FBAE74A9B30EB2B88EBE539
:20636000EF68C573681F7A7E87A9403516E9D12DBB76A0734F3B17A04E354607F7003CD213
:206380001302D22B08BB230CB5AA3EF4033E12C31951BA134D9D5B3F30D04728DD7BA65DCD
:2063A000F2F242679541C977DC3B93EF6708246E15D9EDEAE8204E268F6EC97541A8A7593B
:2063C000EDBFE6AB00EBC844049CC02C6BE1C4F080305BE014335FA47A77B71EE3455DCEAF
:2063E000ED7BAF561A2FB1889A016E2B9B5F83FDCD59660804E445620A267DEAE0DF7F6E9A
:206400009507E49DB51AAC8D15A4F31F73909C64F190703E884E942B6185761AC8617FE5C2
:206420009E930F253D64AD1E89AA0D0C8EB825E12300936809D72E4B6325C4CC0DD36F8590
:206440006967350E11989E553FD4BCBC59B79553AC7784737FE10EC0902B7535E3D22E7406
:2064600090837468C15B1FBD2264D07C97B7E7C96987C0FB5B0560BCB7D8BC724B7EE25680
:20648000EE23CC03709381E4247433EE09DAD30A430EAAE25DC483634F52B840251BA44298
:2064A000543566D797478A77DEA6EF64F4AD79700A1742202DE9FC4F024685B0D0681369C1
:2064C000DFF86CC1DFF86C81A0EB030A506840F004005060002703A802900DF10C0ED8E983
:2064E000003403A8544DC0E900342878534D00280CBF0023042399465CF803305EF80940BD
:20650000234401261D601C689E60DCF80430039DDCF80090DEF804605D406540484C65402D
:2065200089EA0606474C66407519474C6540D8E9006B03AC0028C4E9006B0EBF00240420AD
:206540000424029E5CF80000345920183F4C04600126046886600398029E43406340384C0D
:206560007068634089EA0000364C6040034438484340280018BF01205B1E9B41042F2CBF2E
:20658000C0B2D80F02F1140353F8200007F00303C3F10303DB00D8400DF807007F1C082FA5
:2065A0009DD315460C466A69AB69E868D20842EA4372401E00EA0207002302409B420AD857
:2065C000524508D28020E0557F1C574516D2AAEB0701E01910E08020E05500E0E355E86893
:2065E0007F1C8742FAD32A68136828469847BAF1000F03D051462046FEF764FA2A68069EFD
:20660000059F93686946284698472A68D2F8009021462846C8472B68DA6839462846904776
:206620000EB1A86830604FF4003007B0BDE8F08FBC6C0008DC6C000804E604205FC5109358
:2066400004850012FC68017AC0F524FF24AF33D426AF698B2DE9F84304462079D4F80C80B9
:20666000450748BF244845D466691D46A8F1010000EAD60306EBC506B6EBC50F666102D2E7
:20668000A669761CA6611746A66906EB5576A6610E46E918884225D2A8EB03094A46314667
:2066A000F818FCF779FF2268136839460FE042463846FCF771FF23681A68394620469047BA
:2066C00007E0311811F00300F1D12268136820469847484600EB0809A9F10101A942F0D3A6
:2066E000002300E000202A1A3118F818FCF754FF4FF40030BDE8F283040002002DE9F841B2
:20670000012400940B4695080021A2EB850500241B1F1CE002F1030C4FEA9C0C009E53F874
:206720002CE0075DA5EB0408A8F1010C4FEACC0C2EFA0CFE8EEA0707FFB2FF437F1CFF0F42
:2067400087F001073E400096641C009E7118AC42E0D30025920817E00619571B56F8256044
:2067600053F8277036BA7E406FEA060E0EF1010E4EEA0606009FF60F86F001063E40009695
:206780006D1C009E01EB86019542E5D30846BDE8F281FCB50125960803460095A2EB8606FE
:2067A00000240196104615E01D18161A55F8045CB60851F82660009F2DBA7540EE43761C36
:2067C0003543ED0F85F001053D400095001F009D04EB85040328E7D8019800281CE0019D3F
:2067E000009E1F182D1A17F801CCD71C4FEA970E01EB8E07ED0057F8047C27FA05F585EA09
:206800000C05EDB2ED436D1CED0F85F001052E400096009D2C19401EE1D12046F6BD000089
:206820002DE9F0410B4A92E8F85188B0694681E8F8510268084B9A4200D118B9074808B01E
:20684000BDE8F08120220830FAF7C0FB08B0BDE8F08100BFD8680008F868000803000200BA
:20686000F8B50E4605461446306920610021307C00F00100F9F74CFD012803D1206940F0AB
:2068800001000AE02846AD6931466E68376801232246B8472069400840002061F1BD30B4EE
:2068A000002512E050F8042BD30744BF4A44521E091F042942F8045BFAD213468C0744BFC6
:2068C00015809B1CC90748BF1D7050F8041B0029E8D130BC7047000067E6096A85AE67BB07
:2068E00072F36E3C3AF54FA57F520E518C68059BABD9831F19CDE05B9969000821680008C0
:20690000C16B00080D6900083D69000810B481B013460268074CA24200D118B901B010BC09
